{
  "contractName": "BadNightWatch",
  "abi": [
    {
      "constant": true,
      "inputs": [],
      "name": "king",
      "outputs": [
        {
          "name": "",
          "type": "address"
        }
      ],
      "payable": false,
      "stateMutability": "view",
      "type": "function"
    },
    {
      "constant": true,
      "inputs": [],
      "name": "nightWatch",
      "outputs": [
        {
          "name": "",
          "type": "address"
        }
      ],
      "payable": false,
      "stateMutability": "view",
      "type": "function"
    },
    {
      "constant": false,
      "inputs": [
        {
          "name": "_precept",
          "type": "uint256"
        }
      ],
      "name": "messageToWatch",
      "outputs": [],
      "payable": false,
      "stateMutability": "nonpayable",
      "type": "function"
    },
    {
      "constant": true,
      "inputs": [],
      "name": "forgeAnOrder",
      "outputs": [
        {
          "name": "",
          "type": "uint256"
        }
      ],
      "payable": false,
      "stateMutability": "view",
      "type": "function"
    }
  ],
  "bytecode": "0x608060405234801561001057600080fd5b50610254806100206000396000f3fe608060405260043610610062576000357c0100000000000000000000000000000000000000000000000000000000900463ffffffff1680632a69bf7c14610067578063a78fed66146100a2578063cc181ca8146100cd578063fcd55dd114610124575b600080fd5b34801561007357600080fd5b506100a06004803603602081101561008a57600080fd5b810190808035906020019092919050505061017b565b005b3480156100ae57600080fd5b506100b76101bf565b6040518082815260200191505060405180910390f35b3480156100d957600080fd5b506100e26101dd565b604051808273ffffffffffffffffffffffffffffffffffffffff1673ffffffffffffffffffffffffffffffffffffffff16815260200191505060405180910390f35b34801561013057600080fd5b50610139610203565b604051808273ffffffffffffffffffffffffffffffffffffffff1673ffffffffffffffffffffffffffffffffffffffff16815260200191505060405180910390f35b33600160006101000a81548173ffffffffffffffffffffffffffffffffffffffff021916908373ffffffffffffffffffffffffffffffffffffffff16021790555050565b60003073ffffffffffffffffffffffffffffffffffffffff16905090565b600160009054906101000a900473ffffffffffffffffffffffffffffffffffffffff1681565b6000809054906101000a900473ffffffffffffffffffffffffffffffffffffffff168156fea165627a7a7230582065a08189592c7dc792ee19adfbebb934fea617591f155521af16a49d823566f90029",
  "source": "pragma solidity ^0.5.0;\n\ncontract BadNightWatch {\n    address public nightWatch;\n    address public king;\n    uint precept;\n    \n    function messageToWatch(uint _precept) public {\n        king = msg.sender;\n    }\n    function forgeAnOrder() public view returns(uint){\n        return uint256(address(this));\n    }\n}\n",
  "sourcePath": "/Users/obaranni/castle/contracts/BadNightWatch.sol",
  "compiler": {
    "name": "solc",
    "version": "0.5.0+commit.1d4f565a.Emscripten.clang"
  },
  "schemaVersion": "3.0.2",
  "updatedAt": "2019-03-04T06:08:10.931Z",
  "devdoc": {
    "methods": {}
  },
  "userdoc": {
    "methods": {}
  }
}