{
  "contractName": "Castle",
  "abi": [
    {
      "constant": true,
      "inputs": [],
      "name": "king",
      "outputs": [
        {
          "name": "",
          "type": "address"
        }
      ],
      "payable": false,
      "stateMutability": "view",
      "type": "function"
    },
    {
      "constant": true,
      "inputs": [],
      "name": "nightWatch",
      "outputs": [
        {
          "name": "",
          "type": "address"
        }
      ],
      "payable": false,
      "stateMutability": "view",
      "type": "function"
    },
    {
      "inputs": [
        {
          "name": "nightWatchAddress",
          "type": "address"
        }
      ],
      "payable": false,
      "stateMutability": "nonpayable",
      "type": "constructor"
    },
    {
      "constant": false,
      "inputs": [
        {
          "name": "_precept",
          "type": "uint256"
        }
      ],
      "name": "messageToWatch",
      "outputs": [],
      "payable": false,
      "stateMutability": "nonpayable",
      "type": "function"
    }
  ],
  "bytecode": "0x608060405234801561001057600080fd5b506040516020806104018339810180604052602081101561003057600080fd5b8101908080519060200190929190505050806000806101000a81548173ffffffffffffffffffffffffffffffffffffffff021916908373ffffffffffffffffffffffffffffffffffffffff16021790555033600160006101000a81548173ffffffffffffffffffffffffffffffffffffffff021916908373ffffffffffffffffffffffffffffffffffffffff1602179055505061032f806100d26000396000f3fe608060405260043610610057576000357c0100000000000000000000000000000000000000000000000000000000900463ffffffff1680632a69bf7c1461005c578063cc181ca814610097578063fcd55dd1146100ee575b600080fd5b34801561006857600080fd5b506100956004803603602081101561007f57600080fd5b8101908080359060200190929190505050610145565b005b3480156100a357600080fd5b506100ac6102b8565b604051808273ffffffffffffffffffffffffffffffffffffffff1673ffffffffffffffffffffffffffffffffffffffff16815260200191505060405180910390f35b3480156100fa57600080fd5b506101036102de565b604051808273ffffffffffffffffffffffffffffffffffffffff1673ffffffffffffffffffffffffffffffffffffffff16815260200191505060405180910390f35b6000809054906101000a900473ffffffffffffffffffffffffffffffffffffffff1673ffffffffffffffffffffffffffffffffffffffff1660405180807f6d657373616765546f57617463682875696e7432353629000000000000000000815250601701905060405180910390208260405160200180837bffffffffffffffffffffffffffffffffffffffffffffffffffffffff19167bffffffffffffffffffffffffffffffffffffffffffffffffffffffff19168152600401828152602001925050506040516020818303038152906040526040518082805190602001908083835b60208310151561024d5780518252602082019150602081019050602083039250610228565b6001836020036101000a038019825116818451168082178552505050505050905001915050600060405180830381855af49150503d80600081146102ad576040519150601f19603f3d011682016040523d82523d6000602084013e6102b2565b606091505b50505050565b600160009054906101000a900473ffffffffffffffffffffffffffffffffffffffff1681565b6000809054906101000a900473ffffffffffffffffffffffffffffffffffffffff168156fea165627a7a723058203188e0f0f2b977b5f3d07331d06e6498ce974c9119d5d06bace7ae02d53401260029",
  "source": "pragma solidity ^0.5.0;\n\ncontract Castle {\n  address public nightWatch;\n  address public king; \n  uint precept;\n\n  constructor(address nightWatchAddress) public {\n    nightWatch = nightWatchAddress; \n    king = msg.sender;\n  }\n \n  function messageToWatch(uint256 _precept) public {\n    nightWatch.delegatecall(abi.encodePacked(bytes4(keccak256(\"messageToWatch(uint256)\")), _precept));\n  }\n}\n",
  "sourcePath": "/Users/obaranni/module-6-obaranni/contracts/levels/Castle.sol",
  "compiler": {
    "name": "solc",
    "version": "0.5.0+commit.1d4f565a.Emscripten.clang"
  },
  "schemaVersion": "3.0.2",
  "updatedAt": "2019-03-04T06:25:09.379Z",
  "devdoc": {
    "methods": {}
  },
  "userdoc": {
    "methods": {}
  }
}