{
  "contractName": "NightWatch",
  "abi": [
    {
      "constant": true,
      "inputs": [],
      "name": "precept",
      "outputs": [
        {
          "name": "",
          "type": "uint256"
        }
      ],
      "payable": false,
      "stateMutability": "view",
      "type": "function",
      "signature": "0x66fcedc4"
    },
    {
      "constant": false,
      "inputs": [
        {
          "name": "_precept",
          "type": "uint256"
        }
      ],
      "name": "messageToWatch",
      "outputs": [],
      "payable": false,
      "stateMutability": "nonpayable",
      "type": "function",
      "signature": "0x2a69bf7c"
    }
  ],
  "bytecode": "0x608060405234801561001057600080fd5b5060e98061001f6000396000f3fe6080604052600436106049576000357c0100000000000000000000000000000000000000000000000000000000900463ffffffff1680632a69bf7c14604e57806366fcedc4146085575b600080fd5b348015605957600080fd5b50608360048036036020811015606e57600080fd5b810190808035906020019092919050505060ad565b005b348015609057600080fd5b50609760b7565b6040518082815260200191505060405180910390f35b8060008190555050565b6000548156fea165627a7a723058206ca4391722f7f086639416e28c04870a91d463cbf0b6e5c8ab10e542262347a40029",
  "source": "pragma solidity ^0.5.0;\n\ncontract NightWatch {\n  uint public precept;  \n\n  function messageToWatch(uint _precept) public {\n    precept = _precept;\n  }\n}\n",
  "sourcePath": "/Users/obaranni/module-6-obaranni/contracts/levels/NightWatch.sol",
  "compiler": {
    "name": "solc",
    "version": "0.5.0+commit.1d4f565a.Emscripten.clang"
  },
  "schemaVersion": "3.0.2",
  "updatedAt": "2019-03-04T06:27:44.646Z",
  "devdoc": {
    "methods": {}
  },
  "userdoc": {
    "methods": {}
  }
}